{
  "_format": "hh-sol-artifact-1",
  "contractName": "NFTMarketplace",
  "sourceName": "contracts/NFTMarketplace.sol",
  "abi": [
    {
      "inputs": [],
      "stateMutability": "nonpayable",
      "type": "constructor"
    },
    {
      "anonymous": false,
      "inputs": [
        {
          "indexed": true,
          "internalType": "address",
          "name": "owner",
          "type": "address"
        },
        {
          "indexed": true,
          "internalType": "address",
          "name": "approved",
          "type": "address"
        },
        {
          "indexed": true,
          "internalType": "uint256",
          "name": "tokenId",
          "type": "uint256"
        }
      ],
      "name": "Approval",
      "type": "event"
    },
    {
      "anonymous": false,
      "inputs": [
        {
          "indexed": true,
          "internalType": "address",
          "name": "owner",
          "type": "address"
        },
        {
          "indexed": true,
          "internalType": "address",
          "name": "operator",
          "type": "address"
        },
        {
          "indexed": false,
          "internalType": "bool",
          "name": "approved",
          "type": "bool"
        }
      ],
      "name": "ApprovalForAll",
      "type": "event"
    },
    {
      "anonymous": false,
      "inputs": [
        {
          "indexed": true,
          "internalType": "address",
          "name": "from",
          "type": "address"
        },
        {
          "indexed": true,
          "internalType": "address",
          "name": "to",
          "type": "address"
        },
        {
          "indexed": true,
          "internalType": "uint256",
          "name": "tokenId",
          "type": "uint256"
        }
      ],
      "name": "Transfer",
      "type": "event"
    },
    {
      "anonymous": false,
      "inputs": [
        {
          "indexed": true,
          "internalType": "uint256",
          "name": "tokenId",
          "type": "uint256"
        },
        {
          "indexed": false,
          "internalType": "address",
          "name": "seller",
          "type": "address"
        },
        {
          "indexed": false,
          "internalType": "address",
          "name": "owner",
          "type": "address"
        },
        {
          "indexed": false,
          "internalType": "uint256",
          "name": "price",
          "type": "uint256"
        },
        {
          "indexed": false,
          "internalType": "bool",
          "name": "sold",
          "type": "bool"
        }
      ],
      "name": "idMarketItemCreated",
      "type": "event"
    },
    {
      "inputs": [
        {
          "internalType": "address",
          "name": "to",
          "type": "address"
        },
        {
          "internalType": "uint256",
          "name": "tokenId",
          "type": "uint256"
        }
      ],
      "name": "approve",
      "outputs": [],
      "stateMutability": "nonpayable",
      "type": "function"
    },
    {
      "inputs": [
        {
          "internalType": "address",
          "name": "owner",
          "type": "address"
        }
      ],
      "name": "balanceOf",
      "outputs": [
        {
          "internalType": "uint256",
          "name": "",
          "type": "uint256"
        }
      ],
      "stateMutability": "view",
      "type": "function"
    },
    {
      "inputs": [
        {
          "internalType": "uint256",
          "name": "tokenId",
          "type": "uint256"
        }
      ],
      "name": "createMarketSale",
      "outputs": [],
      "stateMutability": "payable",
      "type": "function"
    },
    {
      "inputs": [
        {
          "internalType": "string",
          "name": "tokenURI",
          "type": "string"
        },
        {
          "internalType": "uint256",
          "name": "price",
          "type": "uint256"
        }
      ],
      "name": "createToken",
      "outputs": [
        {
          "internalType": "uint256",
          "name": "",
          "type": "uint256"
        }
      ],
      "stateMutability": "payable",
      "type": "function"
    },
    {
      "inputs": [],
      "name": "fetchItemsListed",
      "outputs": [
        {
          "components": [
            {
              "internalType": "uint256",
              "name": "tokenId",
              "type": "uint256"
            },
            {
              "internalType": "address payable",
              "name": "seller",
              "type": "address"
            },
            {
              "internalType": "address payable",
              "name": "owner",
              "type": "address"
            },
            {
              "internalType": "uint256",
              "name": "price",
              "type": "uint256"
            },
            {
              "internalType": "bool",
              "name": "sold",
              "type": "bool"
            }
          ],
          "internalType": "struct NFTMarketplace.MarketItem[]",
          "name": "",
          "type": "tuple[]"
        }
      ],
      "stateMutability": "view",
      "type": "function"
    },
    {
      "inputs": [],
      "name": "fetchMarketItem",
      "outputs": [
        {
          "components": [
            {
              "internalType": "uint256",
              "name": "tokenId",
              "type": "uint256"
            },
            {
              "internalType": "address payable",
              "name": "seller",
              "type": "address"
            },
            {
              "internalType": "address payable",
              "name": "owner",
              "type": "address"
            },
            {
              "internalType": "uint256",
              "name": "price",
              "type": "uint256"
            },
            {
              "internalType": "bool",
              "name": "sold",
              "type": "bool"
            }
          ],
          "internalType": "struct NFTMarketplace.MarketItem[]",
          "name": "",
          "type": "tuple[]"
        }
      ],
      "stateMutability": "view",
      "type": "function"
    },
    {
      "inputs": [],
      "name": "fetchMyNFT",
      "outputs": [
        {
          "components": [
            {
              "internalType": "uint256",
              "name": "tokenId",
              "type": "uint256"
            },
            {
              "internalType": "address payable",
              "name": "seller",
              "type": "address"
            },
            {
              "internalType": "address payable",
              "name": "owner",
              "type": "address"
            },
            {
              "internalType": "uint256",
              "name": "price",
              "type": "uint256"
            },
            {
              "internalType": "bool",
              "name": "sold",
              "type": "bool"
            }
          ],
          "internalType": "struct NFTMarketplace.MarketItem[]",
          "name": "",
          "type": "tuple[]"
        }
      ],
      "stateMutability": "view",
      "type": "function"
    },
    {
      "inputs": [
        {
          "internalType": "uint256",
          "name": "tokenId",
          "type": "uint256"
        }
      ],
      "name": "getApproved",
      "outputs": [
        {
          "internalType": "address",
          "name": "",
          "type": "address"
        }
      ],
      "stateMutability": "view",
      "type": "function"
    },
    {
      "inputs": [],
      "name": "getListingPrice",
      "outputs": [
        {
          "internalType": "uint256",
          "name": "",
          "type": "uint256"
        }
      ],
      "stateMutability": "view",
      "type": "function"
    },
    {
      "inputs": [
        {
          "internalType": "address",
          "name": "owner",
          "type": "address"
        },
        {
          "internalType": "address",
          "name": "operator",
          "type": "address"
        }
      ],
      "name": "isApprovedForAll",
      "outputs": [
        {
          "internalType": "bool",
          "name": "",
          "type": "bool"
        }
      ],
      "stateMutability": "view",
      "type": "function"
    },
    {
      "inputs": [],
      "name": "name",
      "outputs": [
        {
          "internalType": "string",
          "name": "",
          "type": "string"
        }
      ],
      "stateMutability": "view",
      "type": "function"
    },
    {
      "inputs": [
        {
          "internalType": "uint256",
          "name": "tokenId",
          "type": "uint256"
        }
      ],
      "name": "ownerOf",
      "outputs": [
        {
          "internalType": "address",
          "name": "",
          "type": "address"
        }
      ],
      "stateMutability": "view",
      "type": "function"
    },
    {
      "inputs": [
        {
          "internalType": "uint256",
          "name": "tokenId",
          "type": "uint256"
        },
        {
          "internalType": "uint256",
          "name": "price",
          "type": "uint256"
        }
      ],
      "name": "reSellToken",
      "outputs": [],
      "stateMutability": "payable",
      "type": "function"
    },
    {
      "inputs": [
        {
          "internalType": "address",
          "name": "from",
          "type": "address"
        },
        {
          "internalType": "address",
          "name": "to",
          "type": "address"
        },
        {
          "internalType": "uint256",
          "name": "tokenId",
          "type": "uint256"
        }
      ],
      "name": "safeTransferFrom",
      "outputs": [],
      "stateMutability": "nonpayable",
      "type": "function"
    },
    {
      "inputs": [
        {
          "internalType": "address",
          "name": "from",
          "type": "address"
        },
        {
          "internalType": "address",
          "name": "to",
          "type": "address"
        },
        {
          "internalType": "uint256",
          "name": "tokenId",
          "type": "uint256"
        },
        {
          "internalType": "bytes",
          "name": "data",
          "type": "bytes"
        }
      ],
      "name": "safeTransferFrom",
      "outputs": [],
      "stateMutability": "nonpayable",
      "type": "function"
    },
    {
      "inputs": [
        {
          "internalType": "address",
          "name": "operator",
          "type": "address"
        },
        {
          "internalType": "bool",
          "name": "approved",
          "type": "bool"
        }
      ],
      "name": "setApprovalForAll",
      "outputs": [],
      "stateMutability": "nonpayable",
      "type": "function"
    },
    {
      "inputs": [
        {
          "internalType": "bytes4",
          "name": "interfaceId",
          "type": "bytes4"
        }
      ],
      "name": "supportsInterface",
      "outputs": [
        {
          "internalType": "bool",
          "name": "",
          "type": "bool"
        }
      ],
      "stateMutability": "view",
      "type": "function"
    },
    {
      "inputs": [],
      "name": "symbol",
      "outputs": [
        {
          "internalType": "string",
          "name": "",
          "type": "string"
        }
      ],
      "stateMutability": "view",
      "type": "function"
    },
    {
      "inputs": [
        {
          "internalType": "uint256",
          "name": "tokenId",
          "type": "uint256"
        }
      ],
      "name": "tokenURI",
      "outputs": [
        {
          "internalType": "string",
          "name": "",
          "type": "string"
        }
      ],
      "stateMutability": "view",
      "type": "function"
    },
    {
      "inputs": [
        {
          "internalType": "address",
          "name": "from",
          "type": "address"
        },
        {
          "internalType": "address",
          "name": "to",
          "type": "address"
        },
        {
          "internalType": "uint256",
          "name": "tokenId",
          "type": "uint256"
        }
      ],
      "name": "transferFrom",
      "outputs": [],
      "stateMutability": "nonpayable",
      "type": "function"
    },
    {
      "inputs": [
        {
          "internalType": "uint256",
          "name": "_listingPrice",
          "type": "uint256"
        }
      ],
      "name": "updateListingToken",
      "outputs": [],
      "stateMutability": "payable",
      "type": "function"
    }
  ],
  "bytecode": "0x60806040526605543df729c0006009553480156200001c57600080fd5b506040518060400160405280601381526020017f4e4654204d657461766172736520546f6b656e000000000000000000000000008152506040518060400160405280600581526020017f4d594e465400000000000000000000000000000000000000000000000000000081525081600090816200009a919062000370565b508060019081620000ac919062000370565b50505033600a60006101000a81548173ffffffffffffffffffffffffffffffffffffffff021916908373ffffffffffffffffffffffffffffffffffffffff16021790555062000457565b600081519050919050565b7f4e487b7100000000000000000000000000000000000000000000000000000000600052604160045260246000fd5b7f4e487b7100000000000000000000000000000000000000000000000000000000600052602260045260246000fd5b600060028204905060018216806200017857607f821691505b6020821081036200018e576200018d62000130565b5b50919050565b60008190508160005260206000209050919050565b60006020601f8301049050919050565b600082821b905092915050565b600060088302620001f87fffffffffffffffffffffffffffffffffffffffffffffffffffffffffffffffff82620001b9565b620002048683620001b9565b95508019841693508086168417925050509392505050565b6000819050919050565b6000819050919050565b6000620002516200024b62000245846200021c565b62000226565b6200021c565b9050919050565b6000819050919050565b6200026d8362000230565b620002856200027c8262000258565b848454620001c6565b825550505050565b600090565b6200029c6200028d565b620002a981848462000262565b505050565b5b81811015620002d157620002c560008262000292565b600181019050620002af565b5050565b601f8211156200032057620002ea8162000194565b620002f584620001a9565b8101602085101562000305578190505b6200031d6200031485620001a9565b830182620002ae565b50505b505050565b600082821c905092915050565b6000620003456000198460080262000325565b1980831691505092915050565b600062000360838362000332565b9150826002028217905092915050565b6200037b82620000f6565b67ffffffffffffffff81111562000397576200039662000101565b5b620003a382546200015f565b620003b0828285620002d5565b600060209050601f831160018114620003e85760008415620003d3578287015190505b620003df858262000352565b8655506200044f565b601f198416620003f88662000194565b60005b828110156200042257848901518255600182019150602085019450602081019050620003fb565b868310156200044257848901516200043e601f89168262000332565b8355505b6001600288020188555050505b505050505050565b613edf80620004676000396000f3fe60806040526004361061012a5760003560e01c806370a08231116100ab578063a22cb4651161006f578063a22cb465146103dd578063b88d4fde14610406578063be9af5361461042f578063c18763f71461044b578063c87b56dd14610476578063e985e9c5146104b35761012a565b806370a08231146102fe57806372b3b6201461033b57806385535b251461036b5780638fafd0211461038757806395d89b41146103b25761012a565b806312e85585116100f257806312e855851461021957806323b872dd1461024457806342842e0e1461026d57806345f8fa80146102965780636352211e146102c15761012a565b806301ffc9a71461012f57806306033b6a1461016c57806306fdde0314610188578063081812fc146101b3578063095ea7b3146101f0575b600080fd5b34801561013b57600080fd5b506101566004803603810190610151919061287a565b6104f0565b60405161016391906128c2565b60405180910390f35b61018660048036038101906101819190612913565b6105d2565b005b34801561019457600080fd5b5061019d610665565b6040516101aa91906129d0565b60405180910390f35b3480156101bf57600080fd5b506101da60048036038101906101d59190612913565b6106f7565b6040516101e79190612a33565b60405180910390f35b3480156101fc57600080fd5b5061021760048036038101906102129190612a7a565b61073d565b005b34801561022557600080fd5b5061022e610854565b60405161023b9190612ac9565b60405180910390f35b34801561025057600080fd5b5061026b60048036038101906102669190612ae4565b61085e565b005b34801561027957600080fd5b50610294600480360381019061028f9190612ae4565b6108be565b005b3480156102a257600080fd5b506102ab6108de565b6040516102b89190612c8d565b60405180910390f35b3480156102cd57600080fd5b506102e860048036038101906102e39190612913565b610bc8565b6040516102f59190612a33565b60405180910390f35b34801561030a57600080fd5b5061032560048036038101906103209190612caf565b610c4e565b6040516103329190612ac9565b60405180910390f35b61035560048036038101906103509190612e11565b610d05565b6040516103629190612ac9565b60405180910390f35b61038560048036038101906103809190612e6d565b610d3d565b005b34801561039357600080fd5b5061039c610f32565b6040516103a99190612c8d565b60405180910390f35b3480156103be57600080fd5b506103c7611199565b6040516103d491906129d0565b60405180910390f35b3480156103e957600080fd5b5061040460048036038101906103ff9190612ed9565b61122b565b005b34801561041257600080fd5b5061042d60048036038101906104289190612fba565b611241565b005b61044960048036038101906104449190612913565b6112a3565b005b34801561045757600080fd5b506104606114db565b60405161046d9190612c8d565b60405180910390f35b34801561048257600080fd5b5061049d60048036038101906104989190612913565b61174f565b6040516104aa91906129d0565b60405180910390f35b3480156104bf57600080fd5b506104da60048036038101906104d5919061303d565b611761565b6040516104e791906128c2565b60405180910390f35b60007f80ac58cd000000000000000000000000000000000000000000000000000000007bffffffffffffffffffffffffffffffffffffffffffffffffffffffff1916827bffffffffffffffffffffffffffffffffffffffffffffffffffffffff191614806105bb57507f5b5e139f000000000000000000000000000000000000000000000000000000007bffffffffffffffffffffffffffffffffffffffffffffffffffffffff1916827bffffffffffffffffffffffffffffffffffffffffffffffffffffffff1916145b806105cb57506105ca826117f5565b5b9050919050565b600a60009054906101000a900473ffffffffffffffffffffffffffffffffffffffff1673ffffffffffffffffffffffffffffffffffffffff163373ffffffffffffffffffffffffffffffffffffffff1614610662576040517f08c379a0000000000000000000000000000000000000000000000000000000008152600401610659906130ef565b60405180910390fd5b50565b6060600080546106749061313e565b80601f01602080910402602001604051908101604052809291908181526020018280546106a09061313e565b80156106ed5780601f106106c2576101008083540402835291602001916106ed565b820191906000526020600020905b8154815290600101906020018083116106d057829003601f168201915b5050505050905090565b60006107028261185f565b6004600083815260200190815260200160002060009054906101000a900473ffffffffffffffffffffffffffffffffffffffff169050919050565b600061074882610bc8565b90508073ffffffffffffffffffffffffffffffffffffffff168373ffffffffffffffffffffffffffffffffffffffff16036107b8576040517f08c379a00000000000000000000000000000000000000000000000000000000081526004016107af906131e1565b60405180910390fd5b8073ffffffffffffffffffffffffffffffffffffffff166107d76118aa565b73ffffffffffffffffffffffffffffffffffffffff1614806108065750610805816108006118aa565b611761565b5b610845576040517f08c379a000000000000000000000000000000000000000000000000000000000815260040161083c90613273565b60405180910390fd5b61084f83836118b2565b505050565b6000600954905090565b61086f6108696118aa565b8261196b565b6108ae576040517f08c379a00000000000000000000000000000000000000000000000000000000081526004016108a590613305565b60405180910390fd5b6108b9838383611a00565b505050565b6108d983838360405180602001604052806000815250611241565b505050565b606060006108ec6007611cf9565b905060008060005b83811015610993573373ffffffffffffffffffffffffffffffffffffffff16600b60006001846109249190613354565b815260200190815260200160002060010160009054906101000a900473ffffffffffffffffffffffffffffffffffffffff1673ffffffffffffffffffffffffffffffffffffffff160361098057828061097c90613388565b9350505b808061098b90613388565b9150506108f4565b5060008267ffffffffffffffff8111156109b0576109af612ce6565b5b6040519080825280602002602001820160405280156109e957816020015b6109d66127b1565b8152602001906001900390816109ce5790505b50905060005b84811015610bbd573373ffffffffffffffffffffffffffffffffffffffff16600b6000600184610a1f9190613354565b815260200190815260200160002060010160009054906101000a900473ffffffffffffffffffffffffffffffffffffffff1673ffffffffffffffffffffffffffffffffffffffff1603610baa576000600182610a7b9190613354565b90506000600b60008381526020019081526020016000206040518060a0016040529081600082015481526020016001820160009054906101000a900473ffffffffffffffffffffffffffffffffffffffff1673ffffffffffffffffffffffffffffffffffffffff1673ffffffffffffffffffffffffffffffffffffffff1681526020016002820160009054906101000a900473ffffffffffffffffffffffffffffffffffffffff1673ffffffffffffffffffffffffffffffffffffffff1673ffffffffffffffffffffffffffffffffffffffff168152602001600382015481526020016004820160009054906101000a900460ff161515151581525050905080848681518110610b8e57610b8d6133d0565b5b60200260200101819052508480610ba490613388565b95505050505b8080610bb590613388565b9150506109ef565b508094505050505090565b600080610bd483611d07565b9050600073ffffffffffffffffffffffffffffffffffffffff168173ffffffffffffffffffffffffffffffffffffffff1603610c45576040517f08c379a0000000000000000000000000000000000000000000000000000000008152600401610c3c9061344b565b60405180910390fd5b80915050919050565b60008073ffffffffffffffffffffffffffffffffffffffff168273ffffffffffffffffffffffffffffffffffffffff1603610cbe576040517f08c379a0000000000000000000000000000000000000000000000000000000008152600401610cb5906134dd565b60405180910390fd5b600360008373ffffffffffffffffffffffffffffffffffffffff1673ffffffffffffffffffffffffffffffffffffffff168152602001908152602001600020549050919050565b6000610d116007611d44565b6000610d1d6007611cf9565b9050610d293382611d5a565b610d338185611f77565b8091505092915050565b3373ffffffffffffffffffffffffffffffffffffffff16600b600084815260200190815260200160002060020160009054906101000a900473ffffffffffffffffffffffffffffffffffffffff1673ffffffffffffffffffffffffffffffffffffffff1614610de1576040517f08c379a0000000000000000000000000000000000000000000000000000000008152600401610dd89061356f565b60405180910390fd5b6009543414610e25576040517f08c379a0000000000000000000000000000000000000000000000000000000008152600401610e1c906135db565b60405180910390fd5b6000600b600084815260200190815260200160002060040160006101000a81548160ff02191690831515021790555080600b60008481526020019081526020016000206003018190555033600b600084815260200190815260200160002060010160006101000a81548173ffffffffffffffffffffffffffffffffffffffff021916908373ffffffffffffffffffffffffffffffffffffffff16021790555030600b600084815260200190815260200160002060020160006101000a81548173ffffffffffffffffffffffffffffffffffffffff021916908373ffffffffffffffffffffffffffffffffffffffff160217905550610f236008611fe4565b610f2e333084611a00565b5050565b60606000610f406007611cf9565b90506000610f4e6008611cf9565b610f586007611cf9565b610f6291906135fb565b90506000808267ffffffffffffffff811115610f8157610f80612ce6565b5b604051908082528060200260200182016040528015610fba57816020015b610fa76127b1565b815260200190600190039081610f9f5790505b50905060005b8481101561118e573073ffffffffffffffffffffffffffffffffffffffff16600b6000600184610ff09190613354565b815260200190815260200160002060020160009054906101000a900473ffffffffffffffffffffffffffffffffffffffff1673ffffffffffffffffffffffffffffffffffffffff160361117b57600060018261104c9190613354565b90506000600b60008381526020019081526020016000209050806040518060a0016040529081600082015481526020016001820160009054906101000a900473ffffffffffffffffffffffffffffffffffffffff1673ffffffffffffffffffffffffffffffffffffffff1673ffffffffffffffffffffffffffffffffffffffff1681526020016002820160009054906101000a900473ffffffffffffffffffffffffffffffffffffffff1673ffffffffffffffffffffffffffffffffffffffff1673ffffffffffffffffffffffffffffffffffffffff168152602001600382015481526020016004820160009054906101000a900460ff16151515158152505084868151811061115f5761115e6133d0565b5b6020026020010181905250848061117590613388565b95505050505b808061118690613388565b915050610fc0565b508094505050505090565b6060600180546111a89061313e565b80601f01602080910402602001604051908101604052809291908181526020018280546111d49061313e565b80156112215780601f106111f657610100808354040283529160200191611221565b820191906000526020600020905b81548152906001019060200180831161120457829003601f168201915b5050505050905090565b61123d6112366118aa565b8383612040565b5050565b61125261124c6118aa565b8361196b565b611291576040517f08c379a000000000000000000000000000000000000000000000000000000000815260040161128890613305565b60405180910390fd5b61129d848484846121ac565b50505050565b6000600b6000838152602001908152602001600020600301549050803414611300576040517f08c379a00000000000000000000000000000000000000000000000000000000081526004016112f7906136a1565b60405180910390fd5b33600b600084815260200190815260200160002060020160006101000a81548173ffffffffffffffffffffffffffffffffffffffff021916908373ffffffffffffffffffffffffffffffffffffffff1602179055506001600b600084815260200190815260200160002060040160006101000a81548160ff0219169083151502179055506000600b600084815260200190815260200160002060010160006101000a81548173ffffffffffffffffffffffffffffffffffffffff021916908373ffffffffffffffffffffffffffffffffffffffff1602179055506113e46008611d44565b6113ef303384611a00565b600a60009054906101000a900473ffffffffffffffffffffffffffffffffffffffff1673ffffffffffffffffffffffffffffffffffffffff166108fc6009549081150290604051600060405180830381858888f19350505050158015611459573d6000803e3d6000fd5b50600b600083815260200190815260200160002060010160009054906101000a900473ffffffffffffffffffffffffffffffffffffffff1673ffffffffffffffffffffffffffffffffffffffff166108fc349081150290604051600060405180830381858888f193505050501580156114d6573d6000803e3d6000fd5b505050565b606060006114e96007611cf9565b905060008060005b83811015611590573373ffffffffffffffffffffffffffffffffffffffff16600b60006001846115219190613354565b815260200190815260200160002060020160009054906101000a900473ffffffffffffffffffffffffffffffffffffffff1673ffffffffffffffffffffffffffffffffffffffff160361157d57828061157990613388565b9350505b808061158890613388565b9150506114f1565b5060008267ffffffffffffffff8111156115ad576115ac612ce6565b5b6040519080825280602002602001820160405280156115e657816020015b6115d36127b1565b8152602001906001900390816115cb5790505b50905060005b848110156117445760006001826116039190613354565b90506000600b60008381526020019081526020016000209050806040518060a0016040529081600082015481526020016001820160009054906101000a900473ffffffffffffffffffffffffffffffffffffffff1673ffffffffffffffffffffffffffffffffffffffff1673ffffffffffffffffffffffffffffffffffffffff1681526020016002820160009054906101000a900473ffffffffffffffffffffffffffffffffffffffff1673ffffffffffffffffffffffffffffffffffffffff1673ffffffffffffffffffffffffffffffffffffffff168152602001600382015481526020016004820160009054906101000a900460ff161515151581525050848681518110611716576117156133d0565b5b6020026020010181905250848061172c90613388565b9550505050808061173c90613388565b9150506115ec565b508094505050505090565b606061175a82612208565b9050919050565b6000600560008473ffffffffffffffffffffffffffffffffffffffff1673ffffffffffffffffffffffffffffffffffffffff16815260200190815260200160002060008373ffffffffffffffffffffffffffffffffffffffff1673ffffffffffffffffffffffffffffffffffffffff16815260200190815260200160002060009054906101000a900460ff16905092915050565b60007f01ffc9a7000000000000000000000000000000000000000000000000000000007bffffffffffffffffffffffffffffffffffffffffffffffffffffffff1916827bffffffffffffffffffffffffffffffffffffffffffffffffffffffff1916149050919050565b6118688161231a565b6118a7576040517f08c379a000000000000000000000000000000000000000000000000000000000815260040161189e9061344b565b60405180910390fd5b50565b600033905090565b816004600083815260200190815260200160002060006101000a81548173ffffffffffffffffffffffffffffffffffffffff021916908373ffffffffffffffffffffffffffffffffffffffff160217905550808273ffffffffffffffffffffffffffffffffffffffff1661192583610bc8565b73ffffffffffffffffffffffffffffffffffffffff167f8c5be1e5ebec7d5bd14f71427d1e84f3dd0314c0f7b2291e5b200ac8c7c3b92560405160405180910390a45050565b60008061197783610bc8565b90508073ffffffffffffffffffffffffffffffffffffffff168473ffffffffffffffffffffffffffffffffffffffff1614806119b957506119b88185611761565b5b806119f757508373ffffffffffffffffffffffffffffffffffffffff166119df846106f7565b73ffffffffffffffffffffffffffffffffffffffff16145b91505092915050565b8273ffffffffffffffffffffffffffffffffffffffff16611a2082610bc8565b73ffffffffffffffffffffffffffffffffffffffff1614611a76576040517f08c379a0000000000000000000000000000000000000000000000000000000008152600401611a6d90613733565b60405180910390fd5b600073ffffffffffffffffffffffffffffffffffffffff168273ffffffffffffffffffffffffffffffffffffffff1603611ae5576040517f08c379a0000000000000000000000000000000000000000000000000000000008152600401611adc906137c5565b60405180910390fd5b611af2838383600161235b565b8273ffffffffffffffffffffffffffffffffffffffff16611b1282610bc8565b73ffffffffffffffffffffffffffffffffffffffff1614611b68576040517f08c379a0000000000000000000000000000000000000000000000000000000008152600401611b5f90613733565b60405180910390fd5b6004600082815260200190815260200160002060006101000a81549073ffffffffffffffffffffffffffffffffffffffff02191690556001600360008573ffffffffffffffffffffffffffffffffffffffff1673ffffffffffffffffffffffffffffffffffffffff168152602001908152602001600020600082825403925050819055506001600360008473ffffffffffffffffffffffffffffffffffffffff1673ffffffffffffffffffffffffffffffffffffffff16815260200190815260200160002060008282540192505081905550816002600083815260200190815260200160002060006101000a81548173ffffffffffffffffffffffffffffffffffffffff021916908373ffffffffffffffffffffffffffffffffffffffff160217905550808273ffffffffffffffffffffffffffffffffffffffff168473ffffffffffffffffffffffffffffffffffffffff167fddf252ad1be2c89b69c2b068fc378daa952ba7f163c4a11628f55a4df523b3ef60405160405180910390a4611cf48383836001612361565b505050565b600081600001549050919050565b60006002600083815260200190815260200160002060009054906101000a900473ffffffffffffffffffffffffffffffffffffffff169050919050565b6001816000016000828254019250508190555050565b600073ffffffffffffffffffffffffffffffffffffffff168273ffffffffffffffffffffffffffffffffffffffff1603611dc9576040517f08c379a0000000000000000000000000000000000000000000000000000000008152600401611dc090613831565b60405180910390fd5b611dd28161231a565b15611e12576040517f08c379a0000000000000000000000000000000000000000000000000000000008152600401611e099061389d565b60405180910390fd5b611e2060008383600161235b565b611e298161231a565b15611e69576040517f08c379a0000000000000000000000000000000000000000000000000000000008152600401611e609061389d565b60405180910390fd5b6001600360008473ffffffffffffffffffffffffffffffffffffffff1673ffffffffffffffffffffffffffffffffffffffff16815260200190815260200160002060008282540192505081905550816002600083815260200190815260200160002060006101000a81548173ffffffffffffffffffffffffffffffffffffffff021916908373ffffffffffffffffffffffffffffffffffffffff160217905550808273ffffffffffffffffffffffffffffffffffffffff16600073ffffffffffffffffffffffffffffffffffffffff167fddf252ad1be2c89b69c2b068fc378daa952ba7f163c4a11628f55a4df523b3ef60405160405180910390a4611f73600083836001612361565b5050565b611f808261231a565b611fbf576040517f08c379a0000000000000000000000000000000000000000000000000000000008152600401611fb69061392f565b60405180910390fd5b80600660008481526020019081526020016000209081611fdf9190613afb565b505050565b60008160000154905060008111612030576040517f08c379a000000000000000000000000000000000000000000000000000000000815260040161202790613c19565b60405180910390fd5b6001810382600001819055505050565b8173ffffffffffffffffffffffffffffffffffffffff168373ffffffffffffffffffffffffffffffffffffffff16036120ae576040517f08c379a00000000000000000000000000000000000000000000000000000000081526004016120a590613c85565b60405180910390fd5b80600560008573ffffffffffffffffffffffffffffffffffffffff1673ffffffffffffffffffffffffffffffffffffffff16815260200190815260200160002060008473ffffffffffffffffffffffffffffffffffffffff1673ffffffffffffffffffffffffffffffffffffffff16815260200190815260200160002060006101000a81548160ff0219169083151502179055508173ffffffffffffffffffffffffffffffffffffffff168373ffffffffffffffffffffffffffffffffffffffff167f17307eab39ab6107e8899845ad3d59bd9653f200f220920489ca2b5937696c318360405161219f91906128c2565b60405180910390a3505050565b6121b7848484611a00565b6121c384848484612367565b612202576040517f08c379a00000000000000000000000000000000000000000000000000000000081526004016121f990613d17565b60405180910390fd5b50505050565b60606122138261185f565b60006006600084815260200190815260200160002080546122339061313e565b80601f016020809104026020016040519081016040528092919081815260200182805461225f9061313e565b80156122ac5780601f10612281576101008083540402835291602001916122ac565b820191906000526020600020905b81548152906001019060200180831161228f57829003601f168201915b5050505050905060006122bd6124ee565b905060008151036122d2578192505050612315565b6000825111156123075780826040516020016122ef929190613d73565b60405160208183030381529060405292505050612315565b61231084612505565b925050505b919050565b60008073ffffffffffffffffffffffffffffffffffffffff1661233c83611d07565b73ffffffffffffffffffffffffffffffffffffffff1614159050919050565b50505050565b50505050565b60006123888473ffffffffffffffffffffffffffffffffffffffff1661256d565b156124e1578373ffffffffffffffffffffffffffffffffffffffff1663150b7a026123b16118aa565b8786866040518563ffffffff1660e01b81526004016123d39493929190613dec565b6020604051808303816000875af192505050801561240f57506040513d601f19601f8201168201806040525081019061240c9190613e4d565b60015b612491573d806000811461243f576040519150601f19603f3d011682016040523d82523d6000602084013e612444565b606091505b506000815103612489576040517f08c379a000000000000000000000000000000000000000000000000000000000815260040161248090613d17565b60405180910390fd5b805181602001fd5b63150b7a0260e01b7bffffffffffffffffffffffffffffffffffffffffffffffffffffffff1916817bffffffffffffffffffffffffffffffffffffffffffffffffffffffff1916149150506124e6565b600190505b949350505050565b606060405180602001604052806000815250905090565b60606125108261185f565b600061251a6124ee565b9050600081511161253a5760405180602001604052806000815250612565565b8061254484612590565b604051602001612555929190613d73565b6040516020818303038152906040525b915050919050565b6000808273ffffffffffffffffffffffffffffffffffffffff163b119050919050565b60606000600161259f8461265e565b01905060008167ffffffffffffffff8111156125be576125bd612ce6565b5b6040519080825280601f01601f1916602001820160405280156125f05781602001600182028036833780820191505090505b509050600082602001820190505b600115612653578080600190039150507f3031323334353637383961626364656600000000000000000000000000000000600a86061a8153600a858161264757612646613e7a565b5b049450600085036125fe575b819350505050919050565b600080600090507a184f03e93ff9f4daa797ed6e38ed64bf6a1f01000000000000000083106126bc577a184f03e93ff9f4daa797ed6e38ed64bf6a1f01000000000000000083816126b2576126b1613e7a565b5b0492506040810190505b6d04ee2d6d415b85acef810000000083106126f9576d04ee2d6d415b85acef810000000083816126ef576126ee613e7a565b5b0492506020810190505b662386f26fc10000831061272857662386f26fc10000838161271e5761271d613e7a565b5b0492506010810190505b6305f5e1008310612751576305f5e100838161274757612746613e7a565b5b0492506008810190505b612710831061277657612710838161276c5761276b613e7a565b5b0492506004810190505b60648310612799576064838161278f5761278e613e7a565b5b0492506002810190505b600a83106127a8576001810190505b80915050919050565b6040518060a0016040528060008152602001600073ffffffffffffffffffffffffffffffffffffffff168152602001600073ffffffffffffffffffffffffffffffffffffffff168152602001600081526020016000151581525090565b6000604051905090565b600080fd5b600080fd5b60007fffffffff0000000000000000000000000000000000000000000000000000000082169050919050565b61285781612822565b811461286257600080fd5b50565b6000813590506128748161284e565b92915050565b6000602082840312156128905761288f612818565b5b600061289e84828501612865565b91505092915050565b60008115159050919050565b6128bc816128a7565b82525050565b60006020820190506128d760008301846128b3565b92915050565b6000819050919050565b6128f0816128dd565b81146128fb57600080fd5b50565b60008135905061290d816128e7565b92915050565b60006020828403121561292957612928612818565b5b6000612937848285016128fe565b91505092915050565b600081519050919050565b600082825260208201905092915050565b60005b8381101561297a57808201518184015260208101905061295f565b60008484015250505050565b6000601f19601f8301169050919050565b60006129a282612940565b6129ac818561294b565b93506129bc81856020860161295c565b6129c581612986565b840191505092915050565b600060208201905081810360008301526129ea8184612997565b905092915050565b600073ffffffffffffffffffffffffffffffffffffffff82169050919050565b6000612a1d826129f2565b9050919050565b612a2d81612a12565b82525050565b6000602082019050612a486000830184612a24565b92915050565b612a5781612a12565b8114612a6257600080fd5b50565b600081359050612a7481612a4e565b92915050565b60008060408385031215612a9157612a90612818565b5b6000612a9f85828601612a65565b9250506020612ab0858286016128fe565b9150509250929050565b612ac3816128dd565b82525050565b6000602082019050612ade6000830184612aba565b92915050565b600080600060608486031215612afd57612afc612818565b5b6000612b0b86828701612a65565b9350506020612b1c86828701612a65565b9250506040612b2d868287016128fe565b9150509250925092565b600081519050919050565b600082825260208201905092915050565b6000819050602082019050919050565b612b6c816128dd565b82525050565b6000612b7d826129f2565b9050919050565b612b8d81612b72565b82525050565b612b9c816128a7565b82525050565b60a082016000820151612bb86000850182612b63565b506020820151612bcb6020850182612b84565b506040820151612bde6040850182612b84565b506060820151612bf16060850182612b63565b506080820151612c046080850182612b93565b50505050565b6000612c168383612ba2565b60a08301905092915050565b6000602082019050919050565b6000612c3a82612b37565b612c448185612b42565b9350612c4f83612b53565b8060005b83811015612c80578151612c678882612c0a565b9750612c7283612c22565b925050600181019050612c53565b5085935050505092915050565b60006020820190508181036000830152612ca78184612c2f565b905092915050565b600060208284031215612cc557612cc4612818565b5b6000612cd384828501612a65565b91505092915050565b600080fd5b600080fd5b7f4e487b7100000000000000000000000000000000000000000000000000000000600052604160045260246000fd5b612d1e82612986565b810181811067ffffffffffffffff82111715612d3d57612d3c612ce6565b5b80604052505050565b6000612d5061280e565b9050612d5c8282612d15565b919050565b600067ffffffffffffffff821115612d7c57612d7b612ce6565b5b612d8582612986565b9050602081019050919050565b82818337600083830152505050565b6000612db4612daf84612d61565b612d46565b905082815260208101848484011115612dd057612dcf612ce1565b5b612ddb848285612d92565b509392505050565b600082601f830112612df857612df7612cdc565b5b8135612e08848260208601612da1565b91505092915050565b60008060408385031215612e2857612e27612818565b5b600083013567ffffffffffffffff811115612e4657612e4561281d565b5b612e5285828601612de3565b9250506020612e63858286016128fe565b9150509250929050565b60008060408385031215612e8457612e83612818565b5b6000612e92858286016128fe565b9250506020612ea3858286016128fe565b9150509250929050565b612eb6816128a7565b8114612ec157600080fd5b50565b600081359050612ed381612ead565b92915050565b60008060408385031215612ef057612eef612818565b5b6000612efe85828601612a65565b9250506020612f0f85828601612ec4565b9150509250929050565b600067ffffffffffffffff821115612f3457612f33612ce6565b5b612f3d82612986565b9050602081019050919050565b6000612f5d612f5884612f19565b612d46565b905082815260208101848484011115612f7957612f78612ce1565b5b612f84848285612d92565b509392505050565b600082601f830112612fa157612fa0612cdc565b5b8135612fb1848260208601612f4a565b91505092915050565b60008060008060808587031215612fd457612fd3612818565b5b6000612fe287828801612a65565b9450506020612ff387828801612a65565b9350506040613004878288016128fe565b925050606085013567ffffffffffffffff8111156130255761302461281d565b5b61303187828801612f8c565b91505092959194509250565b6000806040838503121561305457613053612818565b5b600061306285828601612a65565b925050602061307385828601612a65565b9150509250929050565b7f6f6e6c79206f776e6572206f6620746865206d61726b6574706c61636520636160008201527f6e206368616e676520746865206c697374696e67207072696365000000000000602082015250565b60006130d9603a8361294b565b91506130e48261307d565b604082019050919050565b60006020820190508181036000830152613108816130cc565b9050919050565b7f4e487b7100000000000000000000000000000000000000000000000000000000600052602260045260246000fd5b6000600282049050600182168061315657607f821691505b6020821081036131695761316861310f565b5b50919050565b7f4552433732313a20617070726f76616c20746f2063757272656e74206f776e6560008201527f7200000000000000000000000000000000000000000000000000000000000000602082015250565b60006131cb60218361294b565b91506131d68261316f565b604082019050919050565b600060208201905081810360008301526131fa816131be565b9050919050565b7f4552433732313a20617070726f76652063616c6c6572206973206e6f7420746f60008201527f6b656e206f776e6572206f7220617070726f76656420666f7220616c6c000000602082015250565b600061325d603d8361294b565b915061326882613201565b604082019050919050565b6000602082019050818103600083015261328c81613250565b9050919050565b7f4552433732313a2063616c6c6572206973206e6f7420746f6b656e206f776e6560008201527f72206f7220617070726f76656400000000000000000000000000000000000000602082015250565b60006132ef602d8361294b565b91506132fa82613293565b604082019050919050565b6000602082019050818103600083015261331e816132e2565b9050919050565b7f4e487b7100000000000000000000000000000000000000000000000000000000600052601160045260246000fd5b600061335f826128dd565b915061336a836128dd565b925082820190508082111561338257613381613325565b5b92915050565b6000613393826128dd565b91507fffffffffffffffffffffffffffffffffffffffffffffffffffffffffffffffff82036133c5576133c4613325565b5b600182019050919050565b7f4e487b7100000000000000000000000000000000000000000000000000000000600052603260045260246000fd5b7f4552433732313a20696e76616c696420746f6b656e2049440000000000000000600082015250565b600061343560188361294b565b9150613440826133ff565b602082019050919050565b6000602082019050818103600083015261346481613428565b9050919050565b7f4552433732313a2061646472657373207a65726f206973206e6f74206120766160008201527f6c6964206f776e65720000000000000000000000000000000000000000000000602082015250565b60006134c760298361294b565b91506134d28261346b565b604082019050919050565b600060208201905081810360008301526134f6816134ba565b9050919050565b7f4f6e6c79206974656d206f776e65722063616e20706572666f726d207468697360008201527f206f7065726174696f6e00000000000000000000000000000000000000000000602082015250565b6000613559602a8361294b565b9150613564826134fd565b604082019050919050565b600060208201905081810360008301526135888161354c565b9050919050565b7f5072696365206d75737420626520657175616c20746f206c697374696e670000600082015250565b60006135c5601e8361294b565b91506135d08261358f565b602082019050919050565b600060208201905081810360008301526135f4816135b8565b9050919050565b6000613606826128dd565b9150613611836128dd565b925082820390508181111561362957613628613325565b5b92915050565b7f706c65617365207375626d6974207468652061736b696e67207072696365206960008201527f6e206f7264657220746f20636f6d706c65746520707572636861736500000000602082015250565b600061368b603c8361294b565b91506136968261362f565b604082019050919050565b600060208201905081810360008301526136ba8161367e565b9050919050565b7f4552433732313a207472616e736665722066726f6d20696e636f72726563742060008201527f6f776e6572000000000000000000000000000000000000000000000000000000602082015250565b600061371d60258361294b565b9150613728826136c1565b604082019050919050565b6000602082019050818103600083015261374c81613710565b9050919050565b7f4552433732313a207472616e7366657220746f20746865207a65726f2061646460008201527f7265737300000000000000000000000000000000000000000000000000000000602082015250565b60006137af60248361294b565b91506137ba82613753565b604082019050919050565b600060208201905081810360008301526137de816137a2565b9050919050565b7f4552433732313a206d696e7420746f20746865207a65726f2061646472657373600082015250565b600061381b60208361294b565b9150613826826137e5565b602082019050919050565b6000602082019050818103600083015261384a8161380e565b9050919050565b7f4552433732313a20746f6b656e20616c7265616479206d696e74656400000000600082015250565b6000613887601c8361294b565b915061389282613851565b602082019050919050565b600060208201905081810360008301526138b68161387a565b9050919050565b7f45524337323155524953746f726167653a2055524920736574206f66206e6f6e60008201527f6578697374656e7420746f6b656e000000000000000000000000000000000000602082015250565b6000613919602e8361294b565b9150613924826138bd565b604082019050919050565b600060208201905081810360008301526139488161390c565b9050919050565b60008190508160005260206000209050919050565b60006020601f8301049050919050565b600082821b905092915050565b6000600883026139b17fffffffffffffffffffffffffffffffffffffffffffffffffffffffffffffffff82613974565b6139bb8683613974565b95508019841693508086168417925050509392505050565b6000819050919050565b60006139f86139f36139ee846128dd565b6139d3565b6128dd565b9050919050565b6000819050919050565b613a12836139dd565b613a26613a1e826139ff565b848454613981565b825550505050565b600090565b613a3b613a2e565b613a46818484613a09565b505050565b5b81811015613a6a57613a5f600082613a33565b600181019050613a4c565b5050565b601f821115613aaf57613a808161394f565b613a8984613964565b81016020851015613a98578190505b613aac613aa485613964565b830182613a4b565b50505b505050565b600082821c905092915050565b6000613ad260001984600802613ab4565b1980831691505092915050565b6000613aeb8383613ac1565b9150826002028217905092915050565b613b0482612940565b67ffffffffffffffff811115613b1d57613b1c612ce6565b5b613b27825461313e565b613b32828285613a6e565b600060209050601f831160018114613b655760008415613b53578287015190505b613b5d8582613adf565b865550613bc5565b601f198416613b738661394f565b60005b82811015613b9b57848901518255600182019150602085019450602081019050613b76565b86831015613bb85784890151613bb4601f891682613ac1565b8355505b6001600288020188555050505b505050505050565b7f436f756e7465723a2064656372656d656e74206f766572666c6f770000000000600082015250565b6000613c03601b8361294b565b9150613c0e82613bcd565b602082019050919050565b60006020820190508181036000830152613c3281613bf6565b9050919050565b7f4552433732313a20617070726f766520746f2063616c6c657200000000000000600082015250565b6000613c6f60198361294b565b9150613c7a82613c39565b602082019050919050565b60006020820190508181036000830152613c9e81613c62565b9050919050565b7f4552433732313a207472616e7366657220746f206e6f6e20455243373231526560008201527f63656976657220696d706c656d656e7465720000000000000000000000000000602082015250565b6000613d0160328361294b565b9150613d0c82613ca5565b604082019050919050565b60006020820190508181036000830152613d3081613cf4565b9050919050565b600081905092915050565b6000613d4d82612940565b613d578185613d37565b9350613d6781856020860161295c565b80840191505092915050565b6000613d7f8285613d42565b9150613d8b8284613d42565b91508190509392505050565b600081519050919050565b600082825260208201905092915050565b6000613dbe82613d97565b613dc88185613da2565b9350613dd881856020860161295c565b613de181612986565b840191505092915050565b6000608082019050613e016000830187612a24565b613e0e6020830186612a24565b613e1b6040830185612aba565b8181036060830152613e2d8184613db3565b905095945050505050565b600081519050613e478161284e565b92915050565b600060208284031215613e6357613e62612818565b5b6000613e7184828501613e38565b91505092915050565b7f4e487b7100000000000000000000000000000000000000000000000000000000600052601260045260246000fdfea264697066735822122072c7dcdd0be61d6bfd1583d270ebd86be4ba478699b5eb06f84fbb5b8395d0af64736f6c63430008120033",
  "linkReferences": {},
  "deployedLinkReferences": {}
}